{
  "contractName": "SolnSquareVerifier",
  "abi": [
    {
      "inputs": [
        {
          "internalType": "string",
          "name": "name",
          "type": "string"
        },
        {
          "internalType": "string",
          "name": "symbol",
          "type": "string"
        },
        {
          "internalType": "address",
          "name": "_verifier",
          "type": "address"
        }
      ],
      "stateMutability": "nonpayable",
      "type": "constructor"
    },
    {
      "anonymous": false,
      "inputs": [
        {
          "indexed": true,
          "internalType": "address",
          "name": "owner",
          "type": "address"
        },
        {
          "indexed": true,
          "internalType": "address",
          "name": "approved",
          "type": "address"
        },
        {
          "indexed": true,
          "internalType": "uint256",
          "name": "tokenId",
          "type": "uint256"
        }
      ],
      "name": "Approval",
      "type": "event"
    },
    {
      "anonymous": false,
      "inputs": [
        {
          "indexed": true,
          "internalType": "address",
          "name": "owner",
          "type": "address"
        },
        {
          "indexed": true,
          "internalType": "address",
          "name": "operator",
          "type": "address"
        },
        {
          "indexed": false,
          "internalType": "bool",
          "name": "approved",
          "type": "bool"
        }
      ],
      "name": "ApprovalForAll",
      "type": "event"
    },
    {
      "anonymous": false,
      "inputs": [
        {
          "indexed": true,
          "internalType": "address",
          "name": "previousOwner",
          "type": "address"
        },
        {
          "indexed": true,
          "internalType": "address",
          "name": "newOwner",
          "type": "address"
        }
      ],
      "name": "OwnershipTransferred",
      "type": "event"
    },
    {
      "anonymous": false,
      "inputs": [
        {
          "indexed": false,
          "internalType": "address",
          "name": "",
          "type": "address"
        }
      ],
      "name": "Paused",
      "type": "event"
    },
    {
      "anonymous": false,
      "inputs": [
        {
          "indexed": false,
          "internalType": "uint256",
          "name": "solutionIndex",
          "type": "uint256"
        },
        {
          "indexed": false,
          "internalType": "address",
          "name": "solutionAddress",
          "type": "address"
        }
      ],
      "name": "SolutionAdded",
      "type": "event"
    },
    {
      "anonymous": false,
      "inputs": [
        {
          "indexed": true,
          "internalType": "address",
          "name": "from",
          "type": "address"
        },
        {
          "indexed": true,
          "internalType": "address",
          "name": "to",
          "type": "address"
        },
        {
          "indexed": true,
          "internalType": "uint256",
          "name": "tokenId",
          "type": "uint256"
        }
      ],
      "name": "Transfer",
      "type": "event"
    },
    {
      "anonymous": false,
      "inputs": [
        {
          "indexed": false,
          "internalType": "address",
          "name": "",
          "type": "address"
        }
      ],
      "name": "Unpaused",
      "type": "event"
    },
    {
      "inputs": [
        {
          "internalType": "address",
          "name": "to",
          "type": "address"
        },
        {
          "internalType": "uint256",
          "name": "tokenId",
          "type": "uint256"
        }
      ],
      "name": "approve",
      "outputs": [],
      "stateMutability": "nonpayable",
      "type": "function"
    },
    {
      "inputs": [
        {
          "internalType": "address",
          "name": "owner",
          "type": "address"
        }
      ],
      "name": "balanceOf",
      "outputs": [
        {
          "internalType": "uint256",
          "name": "",
          "type": "uint256"
        }
      ],
      "stateMutability": "view",
      "type": "function",
      "constant": true
    },
    {
      "inputs": [],
      "name": "baseTokenURI",
      "outputs": [
        {
          "internalType": "string",
          "name": "",
          "type": "string"
        }
      ],
      "stateMutability": "view",
      "type": "function",
      "constant": true
    },
    {
      "inputs": [
        {
          "internalType": "uint256",
          "name": "tokenId",
          "type": "uint256"
        }
      ],
      "name": "getApproved",
      "outputs": [
        {
          "internalType": "address",
          "name": "",
          "type": "address"
        }
      ],
      "stateMutability": "view",
      "type": "function",
      "constant": true
    },
    {
      "inputs": [
        {
          "internalType": "address",
          "name": "owner",
          "type": "address"
        },
        {
          "internalType": "address",
          "name": "operator",
          "type": "address"
        }
      ],
      "name": "isApprovedForAll",
      "outputs": [
        {
          "internalType": "bool",
          "name": "",
          "type": "bool"
        }
      ],
      "stateMutability": "view",
      "type": "function",
      "constant": true
    },
    {
      "inputs": [],
      "name": "isPaused",
      "outputs": [
        {
          "internalType": "bool",
          "name": "",
          "type": "bool"
        }
      ],
      "stateMutability": "view",
      "type": "function",
      "constant": true
    },
    {
      "inputs": [
        {
          "internalType": "address",
          "name": "to",
          "type": "address"
        },
        {
          "internalType": "uint256",
          "name": "tokenId",
          "type": "uint256"
        },
        {
          "internalType": "string",
          "name": "tokenURI",
          "type": "string"
        }
      ],
      "name": "mint",
      "outputs": [
        {
          "internalType": "bool",
          "name": "",
          "type": "bool"
        }
      ],
      "stateMutability": "nonpayable",
      "type": "function"
    },
    {
      "inputs": [],
      "name": "name",
      "outputs": [
        {
          "internalType": "string",
          "name": "",
          "type": "string"
        }
      ],
      "stateMutability": "view",
      "type": "function",
      "constant": true
    },
    {
      "inputs": [],
      "name": "owner",
      "outputs": [
        {
          "internalType": "address",
          "name": "",
          "type": "address"
        }
      ],
      "stateMutability": "view",
      "type": "function",
      "constant": true
    },
    {
      "inputs": [
        {
          "internalType": "uint256",
          "name": "tokenId",
          "type": "uint256"
        }
      ],
      "name": "ownerOf",
      "outputs": [
        {
          "internalType": "address",
          "name": "",
          "type": "address"
        }
      ],
      "stateMutability": "view",
      "type": "function",
      "constant": true
    },
    {
      "inputs": [
        {
          "internalType": "address",
          "name": "from",
          "type": "address"
        },
        {
          "internalType": "address",
          "name": "to",
          "type": "address"
        },
        {
          "internalType": "uint256",
          "name": "tokenId",
          "type": "uint256"
        }
      ],
      "name": "safeTransferFrom",
      "outputs": [],
      "stateMutability": "nonpayable",
      "type": "function"
    },
    {
      "inputs": [
        {
          "internalType": "address",
          "name": "from",
          "type": "address"
        },
        {
          "internalType": "address",
          "name": "to",
          "type": "address"
        },
        {
          "internalType": "uint256",
          "name": "tokenId",
          "type": "uint256"
        },
        {
          "internalType": "bytes",
          "name": "_data",
          "type": "bytes"
        }
      ],
      "name": "safeTransferFrom",
      "outputs": [],
      "stateMutability": "nonpayable",
      "type": "function"
    },
    {
      "inputs": [
        {
          "internalType": "address",
          "name": "to",
          "type": "address"
        },
        {
          "internalType": "bool",
          "name": "approved",
          "type": "bool"
        }
      ],
      "name": "setApprovalForAll",
      "outputs": [],
      "stateMutability": "nonpayable",
      "type": "function"
    },
    {
      "inputs": [
        {
          "internalType": "bool",
          "name": "flag",
          "type": "bool"
        }
      ],
      "name": "setPaused",
      "outputs": [],
      "stateMutability": "nonpayable",
      "type": "function"
    },
    {
      "inputs": [
        {
          "internalType": "bytes4",
          "name": "interfaceId",
          "type": "bytes4"
        }
      ],
      "name": "supportsInterface",
      "outputs": [
        {
          "internalType": "bool",
          "name": "",
          "type": "bool"
        }
      ],
      "stateMutability": "view",
      "type": "function",
      "constant": true
    },
    {
      "inputs": [],
      "name": "symbol",
      "outputs": [
        {
          "internalType": "string",
          "name": "",
          "type": "string"
        }
      ],
      "stateMutability": "view",
      "type": "function",
      "constant": true
    },
    {
      "inputs": [
        {
          "internalType": "uint256",
          "name": "index",
          "type": "uint256"
        }
      ],
      "name": "tokenByIndex",
      "outputs": [
        {
          "internalType": "uint256",
          "name": "",
          "type": "uint256"
        }
      ],
      "stateMutability": "view",
      "type": "function",
      "constant": true
    },
    {
      "inputs": [
        {
          "internalType": "address",
          "name": "owner",
          "type": "address"
        },
        {
          "internalType": "uint256",
          "name": "index",
          "type": "uint256"
        }
      ],
      "name": "tokenOfOwnerByIndex",
      "outputs": [
        {
          "internalType": "uint256",
          "name": "",
          "type": "uint256"
        }
      ],
      "stateMutability": "view",
      "type": "function",
      "constant": true
    },
    {
      "inputs": [
        {
          "internalType": "uint256",
          "name": "tokenId",
          "type": "uint256"
        }
      ],
      "name": "tokenURI",
      "outputs": [
        {
          "internalType": "string",
          "name": "",
          "type": "string"
        }
      ],
      "stateMutability": "view",
      "type": "function",
      "constant": true
    },
    {
      "inputs": [],
      "name": "totalSupply",
      "outputs": [
        {
          "internalType": "uint256",
          "name": "",
          "type": "uint256"
        }
      ],
      "stateMutability": "view",
      "type": "function",
      "constant": true
    },
    {
      "inputs": [
        {
          "internalType": "address",
          "name": "from",
          "type": "address"
        },
        {
          "internalType": "address",
          "name": "to",
          "type": "address"
        },
        {
          "internalType": "uint256",
          "name": "tokenId",
          "type": "uint256"
        }
      ],
      "name": "transferFrom",
      "outputs": [],
      "stateMutability": "nonpayable",
      "type": "function"
    },
    {
      "inputs": [
        {
          "internalType": "address",
          "name": "newOwner",
          "type": "address"
        }
      ],
      "name": "transferOwnership",
      "outputs": [],
      "stateMutability": "nonpayable",
      "type": "function"
    },
    {
      "inputs": [
        {
          "components": [
            {
              "components": [
                {
                  "internalType": "uint256",
                  "name": "X",
                  "type": "uint256"
                },
                {
                  "internalType": "uint256",
                  "name": "Y",
                  "type": "uint256"
                }
              ],
              "internalType": "struct Pairing.G1Point",
              "name": "a",
              "type": "tuple"
            },
            {
              "components": [
                {
                  "internalType": "uint256[2]",
                  "name": "X",
                  "type": "uint256[2]"
                },
                {
                  "internalType": "uint256[2]",
                  "name": "Y",
                  "type": "uint256[2]"
                }
              ],
              "internalType": "struct Pairing.G2Point",
              "name": "b",
              "type": "tuple"
            },
            {
              "components": [
                {
                  "internalType": "uint256",
                  "name": "X",
                  "type": "uint256"
                },
                {
                  "internalType": "uint256",
                  "name": "Y",
                  "type": "uint256"
                }
              ],
              "internalType": "struct Pairing.G1Point",
              "name": "c",
              "type": "tuple"
            }
          ],
          "internalType": "struct Verifier.Proof",
          "name": "proof",
          "type": "tuple"
        },
        {
          "internalType": "uint256[2]",
          "name": "input",
          "type": "uint256[2]"
        }
      ],
      "name": "addSolution",
      "outputs": [],
      "stateMutability": "nonpayable",
      "type": "function"
    },
    {
      "inputs": [
        {
          "internalType": "uint256[2]",
          "name": "input",
          "type": "uint256[2]"
        }
      ],
      "name": "mintNFT",
      "outputs": [],
      "stateMutability": "nonpayable",
      "type": "function"
    }
  ],
  "bytecode": "0x60806040523480156200001157600080fd5b506040516200425a3803806200425a833981810160405281019062000037919062000576565b828281816040518060600160405280603f81526020016200421b603f9139336000806101000a81548173ffffffffffffffffffffffffffffffffffffffff021916908373ffffffffffffffffffffffffffffffffffffffff16021790555060008054906101000a900473ffffffffffffffffffffffffffffffffffffffff1673ffffffffffffffffffffffffffffffffffffffff16600073ffffffffffffffffffffffffffffffffffffffff167f8be0079c531659141344cd1fd0a4f28419497f9722a3daafe3b4186f6b6457e060405160405180910390a360008060146101000a81548160ff021916908315150217905550620001426301ffc9a760e01b6200022460201b60201c565b6200015a6380ac58cd60e01b6200022460201b60201c565b6200017263780e9d6360e01b6200022460201b60201c565b82600a90805190602001906200018a929190620002c4565b5081600b9080519060200190620001a3929190620002c4565b5080600c9080519060200190620001bc929190620002c4565b50620001d5635b5e139f60e01b6200022460201b60201c565b505050505080600e60006101000a81548173ffffffffffffffffffffffffffffffffffffffff021916908373ffffffffffffffffffffffffffffffffffffffff16021790555050505062000675565b63ffffffff60e01b817bffffffffffffffffffffffffffffffffffffffffffffffffffffffff191614156200025857600080fd5b6001806000837bffffffffffffffffffffffffffffffffffffffffffffffffffffffff19167bffffffffffffffffffffffffffffffffffffffffffffffffffffffff1916815260200190815260200160002060006101000a81548160ff02191690831515021790555050565b828054620002d2906200063f565b90600052602060002090601f016020900481019282620002f6576000855562000342565b82601f106200031157805160ff191683800117855562000342565b8280016001018555821562000342579182015b828111156200034157825182559160200191906001019062000324565b5b50905062000351919062000355565b5090565b5b808211156200037057600081600090555060010162000356565b5090565b6000604051905090565b600080fd5b600080fd5b600080fd5b600080fd5b6000601f19601f8301169050919050565b7f4e487b7100000000000000000000000000000000000000000000000000000000600052604160045260246000fd5b620003dd8262000392565b810181811067ffffffffffffffff82111715620003ff57620003fe620003a3565b5b80604052505050565b60006200041462000374565b9050620004228282620003d2565b919050565b600067ffffffffffffffff821115620004455762000444620003a3565b5b620004508262000392565b9050602081019050919050565b60005b838110156200047d57808201518184015260208101905062000460565b838111156200048d576000848401525b50505050565b6000620004aa620004a48462000427565b62000408565b905082815260208101848484011115620004c957620004c86200038d565b5b620004d68482856200045d565b509392505050565b600082601f830112620004f657620004f562000388565b5b81516200050884826020860162000493565b91505092915050565b600073ffffffffffffffffffffffffffffffffffffffff82169050919050565b60006200053e8262000511565b9050919050565b620005508162000531565b81146200055c57600080fd5b50565b600081519050620005708162000545565b92915050565b6000806000606084860312156200059257620005916200037e565b5b600084015167ffffffffffffffff811115620005b357620005b262000383565b5b620005c186828701620004de565b935050602084015167ffffffffffffffff811115620005e557620005e462000383565b5b620005f386828701620004de565b925050604062000606868287016200055f565b9150509250925092565b7f4e487b7100000000000000000000000000000000000000000000000000000000600052602260045260246000fd5b600060028204905060018216806200065857607f821691505b602082108114156200066f576200066e62000610565b5b50919050565b613b9680620006856000396000f3fe608060405234801561001057600080fd5b50600436106101585760003560e01c806370a08231116100c3578063b88d4fde1161007c578063b88d4fde146103d7578063c87b56dd146103f3578063d3fc986414610423578063d547cfb714610453578063e985e9c514610471578063f2fde38b146104a157610158565b806370a08231146103155780638da5cb5b1461034557806395d89b4114610363578063a22cb46514610381578063a8ed4e261461039d578063b187bd26146103b957610158565b806323b872dd1161011557806323b872dd146102315780632f745c591461024d57806342842e0e1461027d5780634f6ccce7146102995780636352211e146102c95780636977bc84146102f957610158565b806301ffc9a71461015d57806306fdde031461018d578063081812fc146101ab578063095ea7b3146101db57806316c38b3c146101f757806318160ddd14610213575b600080fd5b6101776004803603810190610172919061248e565b6104bd565b60405161018491906124d6565b60405180910390f35b610195610525565b6040516101a2919061258a565b60405180910390f35b6101c560048036038101906101c091906125e2565b6105b7565b6040516101d29190612650565b60405180910390f35b6101f560048036038101906101f09190612697565b6105f4565b005b610211600480360381019061020c9190612703565b61082c565b005b61021b610960565b604051610228919061273f565b60405180910390f35b61024b6004803603810190610246919061275a565b61096d565b005b61026760048036038101906102629190612697565b6109c6565b604051610274919061273f565b60405180910390f35b6102976004803603810190610292919061275a565b610a40565b005b6102b360048036038101906102ae91906125e2565b610a60565b6040516102c0919061273f565b60405180910390f35b6102e360048036038101906102de91906125e2565b610a9b565b6040516102f09190612650565b60405180910390f35b610313600480360381019061030e91906129ed565b610ad8565b005b61032f600480360381019061032a9190612a2f565b610d8e565b60405161033c919061273f565b60405180910390f35b61034d610dde565b60405161035a9190612650565b60405180910390f35b61036b610e07565b604051610378919061258a565b60405180910390f35b61039b60048036038101906103969190612a5c565b610e99565b005b6103b760048036038101906103b29190612a9c565b610fcf565b005b6103c16111c6565b6040516103ce91906124d6565b60405180910390f35b6103f160048036038101906103ec9190612b7e565b6111dc565b005b61040d600480360381019061040891906125e2565b611202565b60405161041a919061258a565b60405180910390f35b61043d60048036038101906104389190612ca2565b6112b9565b60405161044a91906124d6565b60405180910390f35b61045b6113bd565b604051610468919061258a565b60405180910390f35b61048b60048036038101906104869190612d11565b61144f565b60405161049891906124d6565b60405180910390f35b6104bb60048036038101906104b69190612a2f565b6114e3565b005b600060016000837bffffffffffffffffffffffffffffffffffffffffffffffffffffffff19167bffffffffffffffffffffffffffffffffffffffffffffffffffffffff1916815260200190815260200160002060009054906101000a900460ff169050919050565b6060600a805461053490612d80565b80601f016020809104026020016040519081016040528092919081815260200182805461056090612d80565b80156105ad5780601f10610582576101008083540402835291602001916105ad565b820191906000526020600020905b81548152906001019060200180831161059057829003601f168201915b5050505050905090565b60006003600083815260200190815260200160002060009054906101000a900473ffffffffffffffffffffffffffffffffffffffff169050919050565b8173ffffffffffffffffffffffffffffffffffffffff166002600083815260200190815260200160002060009054906101000a900473ffffffffffffffffffffffffffffffffffffffff1673ffffffffffffffffffffffffffffffffffffffff161415610696576040517f08c379a000000000000000000000000000000000000000000000000000000000815260040161068d90612e24565b60405180910390fd5b6002600082815260200190815260200160002060009054906101000a900473ffffffffffffffffffffffffffffffffffffffff1673ffffffffffffffffffffffffffffffffffffffff163373ffffffffffffffffffffffffffffffffffffffff16148061073c575061073b6002600083815260200190815260200160002060009054906101000a900473ffffffffffffffffffffffffffffffffffffffff163361144f565b5b61077b576040517f08c379a000000000000000000000000000000000000000000000000000000000815260040161077290612eb6565b60405180910390fd5b816003600083815260200190815260200160002060006101000a81548173ffffffffffffffffffffffffffffffffffffffff021916908373ffffffffffffffffffffffffffffffffffffffff160217905550808273ffffffffffffffffffffffffffffffffffffffff163373ffffffffffffffffffffffffffffffffffffffff167f8c5be1e5ebec7d5bd14f71427d1e84f3dd0314c0f7b2291e5b200ac8c7c3b92560405160405180910390a45050565b3373ffffffffffffffffffffffffffffffffffffffff1660008054906101000a900473ffffffffffffffffffffffffffffffffffffffff1673ffffffffffffffffffffffffffffffffffffffff16146108ba576040517f08c379a00000000000000000000000000000000000000000000000000000000081526004016108b190612f22565b60405180910390fd5b80600060146101000a81548160ff021916908315150217905550600060149054906101000a900460ff1615610925577f62e78cea01bee320cd4e420270b5ea74000d11b0c9f74754ebdbfc544b05a258336040516109189190612650565b60405180910390a161095d565b7f5db9ee0a495bf2e6ff9c91a7834c1ba4fdd244a5e8aa4e537bd38aeae4b073aa336040516109549190612650565b60405180910390a15b50565b6000600880549050905090565b610977338261169e565b6109b6576040517f08c379a00000000000000000000000000000000000000000000000000000000081526004016109ad90612fb4565b60405180910390fd5b6109c1838383611733565b505050565b60006109d183610d8e565b82106109dc57600080fd5b600660008473ffffffffffffffffffffffffffffffffffffffff1673ffffffffffffffffffffffffffffffffffffffff1681526020019081526020016000208281548110610a2d57610a2c612fd4565b5b9060005260206000200154905092915050565b610a5b838383604051806020016040528060008152506111dc565b505050565b6000610a6a610960565b8210610a7557600080fd5b60088281548110610a8957610a88612fd4565b5b90600052602060002001549050919050565b60006002600083815260200190815260200160002060009054906101000a900473ffffffffffffffffffffffffffffffffffffffff169050919050565b600081600060028110610aee57610aed612fd4565b5b602002015182600160028110610b0757610b06612fd4565b5b6020020151604051602001610b1d929190613024565b604051602081830303815290604052805190602001209050600073ffffffffffffffffffffffffffffffffffffffff16600f600083815260200190815260200160002060010160009054906101000a900473ffffffffffffffffffffffffffffffffffffffff1673ffffffffffffffffffffffffffffffffffffffff1614610bda576040517f08c379a0000000000000000000000000000000000000000000000000000000008152600401610bd19061309c565b60405180910390fd5b6000600e60009054906101000a900473ffffffffffffffffffffffffffffffffffffffff1673ffffffffffffffffffffffffffffffffffffffff166343cd76fc85856040518363ffffffff1660e01b8152600401610c3992919061326a565b60206040518083038186803b158015610c5157600080fd5b505afa158015610c65573d6000803e3d6000fd5b505050506040513d601f19601f82011682018060405250810190610c8991906132aa565b905080610ccb576040517f08c379a0000000000000000000000000000000000000000000000000000000008152600401610cc290613349565b60405180910390fd5b610ce1600160105461175790919063ffffffff16565b6010819055506000600f600084815260200190815260200160002090506010548160000181905550338160010160006101000a81548173ffffffffffffffffffffffffffffffffffffffff021916908373ffffffffffffffffffffffffffffffffffffffff1602179055507f078793128cefb19aac38a33f9e5df39f67716907f6d747e8065545699e0b2b8d60105433604051610d7f929190613369565b60405180910390a15050505050565b6000610dd7600460008473ffffffffffffffffffffffffffffffffffffffff1673ffffffffffffffffffffffffffffffffffffffff16815260200190815260200160002061176d565b9050919050565b60008060009054906101000a900473ffffffffffffffffffffffffffffffffffffffff16905090565b6060600b8054610e1690612d80565b80601f0160208091040260200160405190810160405280929190818152602001828054610e4290612d80565b8015610e8f5780601f10610e6457610100808354040283529160200191610e8f565b820191906000526020600020905b815481529060010190602001808311610e7257829003601f168201915b5050505050905090565b3373ffffffffffffffffffffffffffffffffffffffff168273ffffffffffffffffffffffffffffffffffffffff161415610ed257600080fd5b80600560003373ffffffffffffffffffffffffffffffffffffffff1673ffffffffffffffffffffffffffffffffffffffff16815260200190815260200160002060008473ffffffffffffffffffffffffffffffffffffffff1673ffffffffffffffffffffffffffffffffffffffff16815260200190815260200160002060006101000a81548160ff0219169083151502179055508173ffffffffffffffffffffffffffffffffffffffff163373ffffffffffffffffffffffffffffffffffffffff167f17307eab39ab6107e8899845ad3d59bd9653f200f220920489ca2b5937696c3183604051610fc391906124d6565b60405180910390a35050565b600081600060028110610fe557610fe4612fd4565b5b602002015182600160028110610ffe57610ffd612fd4565b5b6020020151604051602001611014929190613024565b604051602081830303815290604052805190602001209050600073ffffffffffffffffffffffffffffffffffffffff16600f600083815260200190815260200160002060010160009054906101000a900473ffffffffffffffffffffffffffffffffffffffff1673ffffffffffffffffffffffffffffffffffffffff1614156110d2576040517f08c379a00000000000000000000000000000000000000000000000000000000081526004016110c9906133de565b60405180910390fd5b6000600f6000838152602001908152602001600020600001549050600015156011600083815260200190815260200160002060009054906101000a900460ff16151514611154576040517f08c379a000000000000000000000000000000000000000000000000000000000815260040161114b9061344a565b60405180910390fd5b61119433826040518060400160405280600c81526020017f74657374546f6b656e55524900000000000000000000000000000000000000008152506112b9565b5060016011600083815260200190815260200160002060006101000a81548160ff021916908315150217905550505050565b60008060149054906101000a900460ff16905090565b6111e784848461096d565b6111f38484848461177b565b6111fc57600080fd5b50505050565b606061120d82611892565b61121657600080fd5b600d6000838152602001908152602001600020805461123490612d80565b80601f016020809104026020016040519081016040528092919081815260200182805461126090612d80565b80156112ad5780601f10611282576101008083540402835291602001916112ad565b820191906000526020600020905b81548152906001019060200180831161129057829003601f168201915b50505050509050919050565b60003373ffffffffffffffffffffffffffffffffffffffff1660008054906101000a900473ffffffffffffffffffffffffffffffffffffffff1673ffffffffffffffffffffffffffffffffffffffff1614611349576040517f08c379a000000000000000000000000000000000000000000000000000000000815260040161134090612f22565b60405180910390fd5b60001515600060149054906101000a900460ff1615151461139f576040517f08c379a0000000000000000000000000000000000000000000000000000000008152600401611396906134b6565b60405180910390fd5b6113a98484611904565b6113b283611925565b600190509392505050565b6060600c80546113cc90612d80565b80601f01602080910402602001604051908101604052809291908181526020018280546113f890612d80565b80156114455780601f1061141a57610100808354040283529160200191611445565b820191906000526020600020905b81548152906001019060200180831161142857829003601f168201915b5050505050905090565b6000600560008473ffffffffffffffffffffffffffffffffffffffff1673ffffffffffffffffffffffffffffffffffffffff16815260200190815260200160002060008373ffffffffffffffffffffffffffffffffffffffff1673ffffffffffffffffffffffffffffffffffffffff16815260200190815260200160002060009054906101000a900460ff16905092915050565b3373ffffffffffffffffffffffffffffffffffffffff1660008054906101000a900473ffffffffffffffffffffffffffffffffffffffff1673ffffffffffffffffffffffffffffffffffffffff1614611571576040517f08c379a000000000000000000000000000000000000000000000000000000000815260040161156890612f22565b60405180910390fd5b600073ffffffffffffffffffffffffffffffffffffffff168173ffffffffffffffffffffffffffffffffffffffff1614156115e1576040517f08c379a00000000000000000000000000000000000000000000000000000000081526004016115d890613522565b60405180910390fd5b8073ffffffffffffffffffffffffffffffffffffffff1660008054906101000a900473ffffffffffffffffffffffffffffffffffffffff1673ffffffffffffffffffffffffffffffffffffffff167f8be0079c531659141344cd1fd0a4f28419497f9722a3daafe3b4186f6b6457e060405160405180910390a3806000806101000a81548173ffffffffffffffffffffffffffffffffffffffff021916908373ffffffffffffffffffffffffffffffffffffffff16021790555050565b6000806116aa83610a9b565b90508073ffffffffffffffffffffffffffffffffffffffff168473ffffffffffffffffffffffffffffffffffffffff16148061171957508373ffffffffffffffffffffffffffffffffffffffff16611701846105b7565b73ffffffffffffffffffffffffffffffffffffffff16145b8061172a5750611729818561144f565b5b91505092915050565b61173e8383836119b8565b6117488382611c12565b6117528282611dc3565b505050565b600081836117659190613571565b905092915050565b600081600001549050919050565b600061179c8473ffffffffffffffffffffffffffffffffffffffff16611e87565b6117a9576001905061188a565b60008473ffffffffffffffffffffffffffffffffffffffff1663150b7a02338887876040518563ffffffff1660e01b81526004016117ea949392919061361c565b602060405180830381600087803b15801561180457600080fd5b505af1158015611818573d6000803e3d6000fd5b505050506040513d601f19601f8201168201806040525081019061183c919061367d565b905063150b7a0260e01b7bffffffffffffffffffffffffffffffffffffffffffffffffffffffff1916817bffffffffffffffffffffffffffffffffffffffffffffffffffffffff1916149150505b949350505050565b6000806002600084815260200190815260200160002060009054906101000a900473ffffffffffffffffffffffffffffffffffffffff169050600073ffffffffffffffffffffffffffffffffffffffff168173ffffffffffffffffffffffffffffffffffffffff161415915050919050565b61190e8282611e9a565b6119188282611dc3565b611921816120a5565b5050565b61192e81611892565b61193757600080fd5b6000600c805461194690612d80565b905011611962576040518060200160405280600081525061198e565b600c61196d826120ee565b60405160200161197e92919061377a565b6040516020818303038152906040525b600d600083815260200190815260200160002090805190602001906119b492919061237f565b5050565b6002600082815260200190815260200160002060009054906101000a900473ffffffffffffffffffffffffffffffffffffffff1673ffffffffffffffffffffffffffffffffffffffff168373ffffffffffffffffffffffffffffffffffffffff1614611a59576040517f08c379a0000000000000000000000000000000000000000000000000000000008152600401611a5090613836565b60405180910390fd5b600073ffffffffffffffffffffffffffffffffffffffff168273ffffffffffffffffffffffffffffffffffffffff161415611ac9576040517f08c379a0000000000000000000000000000000000000000000000000000000008152600401611ac0906138a2565b60405180910390fd5b611ad28161224f565b611b19600460008573ffffffffffffffffffffffffffffffffffffffff1673ffffffffffffffffffffffffffffffffffffffff16815260200190815260200160002061230d565b611b60600460008473ffffffffffffffffffffffffffffffffffffffff1673ffffffffffffffffffffffffffffffffffffffff168152602001908152602001600020612369565b816002600083815260200190815260200160002060006101000a81548173ffffffffffffffffffffffffffffffffffffffff021916908373ffffffffffffffffffffffffffffffffffffffff160217905550808273ffffffffffffffffffffffffffffffffffffffff168473ffffffffffffffffffffffffffffffffffffffff167fddf252ad1be2c89b69c2b068fc378daa952ba7f163c4a11628f55a4df523b3ef60405160405180910390a4505050565b60006001600660008573ffffffffffffffffffffffffffffffffffffffff1673ffffffffffffffffffffffffffffffffffffffff16815260200190815260200160002080549050611c6391906138c2565b9050600060076000848152602001908152602001600020549050818114611d5e576000600660008673ffffffffffffffffffffffffffffffffffffffff1673ffffffffffffffffffffffffffffffffffffffff1681526020019081526020016000208381548110611cd757611cd6612fd4565b5b9060005260206000200154905080600660008773ffffffffffffffffffffffffffffffffffffffff1673ffffffffffffffffffffffffffffffffffffffff1681526020019081526020016000208381548110611d3657611d35612fd4565b5b9060005260206000200181905550816007600083815260200190815260200160002081905550505b600660008573ffffffffffffffffffffffffffffffffffffffff1673ffffffffffffffffffffffffffffffffffffffff1681526020019081526020016000208281548110611daf57611dae612fd4565b5b906000526020600020016000905550505050565b600660008373ffffffffffffffffffffffffffffffffffffffff1673ffffffffffffffffffffffffffffffffffffffff168152602001908152602001600020805490506007600083815260200190815260200160002081905550600660008373ffffffffffffffffffffffffffffffffffffffff1673ffffffffffffffffffffffffffffffffffffffff1681526020019081526020016000208190806001815401808255809150506001900390600052602060002001600090919091909150555050565b600080823b905060008111915050919050565b600073ffffffffffffffffffffffffffffffffffffffff168273ffffffffffffffffffffffffffffffffffffffff161415611f0a576040517f08c379a0000000000000000000000000000000000000000000000000000000008152600401611f0190613968565b60405180910390fd5b600073ffffffffffffffffffffffffffffffffffffffff166002600083815260200190815260200160002060009054906101000a900473ffffffffffffffffffffffffffffffffffffffff1673ffffffffffffffffffffffffffffffffffffffff1614611fac576040517f08c379a0000000000000000000000000000000000000000000000000000000008152600401611fa3906139fa565b60405180910390fd5b816002600083815260200190815260200160002060006101000a81548173ffffffffffffffffffffffffffffffffffffffff021916908373ffffffffffffffffffffffffffffffffffffffff160217905550612045600460008473ffffffffffffffffffffffffffffffffffffffff1673ffffffffffffffffffffffffffffffffffffffff168152602001908152602001600020612369565b808273ffffffffffffffffffffffffffffffffffffffff16600073ffffffffffffffffffffffffffffffffffffffff167fddf252ad1be2c89b69c2b068fc378daa952ba7f163c4a11628f55a4df523b3ef60405160405180910390a45050565b6008805490506009600083815260200190815260200160002081905550600881908060018154018082558091505060019003906000526020600020016000909190919091505550565b60606000821415612136576040518060400160405280600181526020017f3000000000000000000000000000000000000000000000000000000000000000815250905061224a565b600082905060005b6000821461216857808061215190613a1a565b915050600a826121619190613a92565b915061213e565b60008167ffffffffffffffff811115612184576121836127b2565b5b6040519080825280601f01601f1916602001820160405280156121b65781602001600182028036833780820191505090505b5090505b60008514612243576001826121cf91906138c2565b9150600a856121de9190613ac3565b60306121ea9190613571565b60f81b818381518110612200576121ff612fd4565b5b60200101907effffffffffffffffffffffffffffffffffffffffffffffffffffffffffffff1916908160001a905350600a8561223c9190613a92565b94506121ba565b8093505050505b919050565b600073ffffffffffffffffffffffffffffffffffffffff166003600083815260200190815260200160002060009054906101000a900473ffffffffffffffffffffffffffffffffffffffff1673ffffffffffffffffffffffffffffffffffffffff161461230a5760006003600083815260200190815260200160002060006101000a81548173ffffffffffffffffffffffffffffffffffffffff021916908373ffffffffffffffffffffffffffffffffffffffff1602179055505b50565b60008160000154905060008111612359576040517f08c379a000000000000000000000000000000000000000000000000000000000815260040161235090613b40565b60405180910390fd5b6001810382600001819055505050565b6001816000016000828254019250508190555050565b82805461238b90612d80565b90600052602060002090601f0160209004810192826123ad57600085556123f4565b82601f106123c657805160ff19168380011785556123f4565b828001600101855582156123f4579182015b828111156123f35782518255916020019190600101906123d8565b5b5090506124019190612405565b5090565b5b8082111561241e576000816000905550600101612406565b5090565b6000604051905090565b600080fd5b600080fd5b60007fffffffff0000000000000000000000000000000000000000000000000000000082169050919050565b61246b81612436565b811461247657600080fd5b50565b60008135905061248881612462565b92915050565b6000602082840312156124a4576124a361242c565b5b60006124b284828501612479565b91505092915050565b60008115159050919050565b6124d0816124bb565b82525050565b60006020820190506124eb60008301846124c7565b92915050565b600081519050919050565b600082825260208201905092915050565b60005b8381101561252b578082015181840152602081019050612510565b8381111561253a576000848401525b50505050565b6000601f19601f8301169050919050565b600061255c826124f1565b61256681856124fc565b935061257681856020860161250d565b61257f81612540565b840191505092915050565b600060208201905081810360008301526125a48184612551565b905092915050565b6000819050919050565b6125bf816125ac565b81146125ca57600080fd5b50565b6000813590506125dc816125b6565b92915050565b6000602082840312156125f8576125f761242c565b5b6000612606848285016125cd565b91505092915050565b600073ffffffffffffffffffffffffffffffffffffffff82169050919050565b600061263a8261260f565b9050919050565b61264a8161262f565b82525050565b60006020820190506126656000830184612641565b92915050565b6126748161262f565b811461267f57600080fd5b50565b6000813590506126918161266b565b92915050565b600080604083850312156126ae576126ad61242c565b5b60006126bc85828601612682565b92505060206126cd858286016125cd565b9150509250929050565b6126e0816124bb565b81146126eb57600080fd5b50565b6000813590506126fd816126d7565b92915050565b6000602082840312156127195761271861242c565b5b6000612727848285016126ee565b91505092915050565b612739816125ac565b82525050565b60006020820190506127546000830184612730565b92915050565b6000806000606084860312156127735761277261242c565b5b600061278186828701612682565b935050602061279286828701612682565b92505060406127a3868287016125cd565b9150509250925092565b600080fd5b7f4e487b7100000000000000000000000000000000000000000000000000000000600052604160045260246000fd5b6127ea82612540565b810181811067ffffffffffffffff82111715612809576128086127b2565b5b80604052505050565b600061281c612422565b905061282882826127e1565b919050565b600060408284031215612843576128426127ad565b5b61284d6040612812565b9050600061285d848285016125cd565b6000830152506020612871848285016125cd565b60208301525092915050565b600080fd5b600067ffffffffffffffff82111561289d5761289c6127b2565b5b602082029050919050565b600080fd5b60006128c06128bb84612882565b612812565b905080602084028301858111156128da576128d96128a8565b5b835b8181101561290357806128ef88826125cd565b8452602084019350506020810190506128dc565b5050509392505050565b600082601f8301126129225761292161287d565b5b600261292f8482856128ad565b91505092915050565b60006080828403121561294e5761294d6127ad565b5b6129586040612812565b905060006129688482850161290d565b600083015250604061297c8482850161290d565b60208301525092915050565b6000610100828403121561299f5761299e6127ad565b5b6129a96060612812565b905060006129b98482850161282d565b60008301525060406129cd84828501612938565b60208301525060c06129e18482850161282d565b60408301525092915050565b6000806101408385031215612a0557612a0461242c565b5b6000612a1385828601612988565b925050610100612a258582860161290d565b9150509250929050565b600060208284031215612a4557612a4461242c565b5b6000612a5384828501612682565b91505092915050565b60008060408385031215612a7357612a7261242c565b5b6000612a8185828601612682565b9250506020612a92858286016126ee565b9150509250929050565b600060408284031215612ab257612ab161242c565b5b6000612ac08482850161290d565b91505092915050565b600080fd5b600067ffffffffffffffff821115612ae957612ae86127b2565b5b612af282612540565b9050602081019050919050565b82818337600083830152505050565b6000612b21612b1c84612ace565b612812565b905082815260208101848484011115612b3d57612b3c612ac9565b5b612b48848285612aff565b509392505050565b600082601f830112612b6557612b6461287d565b5b8135612b75848260208601612b0e565b91505092915050565b60008060008060808587031215612b9857612b9761242c565b5b6000612ba687828801612682565b9450506020612bb787828801612682565b9350506040612bc8878288016125cd565b925050606085013567ffffffffffffffff811115612be957612be8612431565b5b612bf587828801612b50565b91505092959194509250565b600067ffffffffffffffff821115612c1c57612c1b6127b2565b5b612c2582612540565b9050602081019050919050565b6000612c45612c4084612c01565b612812565b905082815260208101848484011115612c6157612c60612ac9565b5b612c6c848285612aff565b509392505050565b600082601f830112612c8957612c8861287d565b5b8135612c99848260208601612c32565b91505092915050565b600080600060608486031215612cbb57612cba61242c565b5b6000612cc986828701612682565b9350506020612cda868287016125cd565b925050604084013567ffffffffffffffff811115612cfb57612cfa612431565b5b612d0786828701612c74565b9150509250925092565b60008060408385031215612d2857612d2761242c565b5b6000612d3685828601612682565b9250506020612d4785828601612682565b9150509250929050565b7f4e487b7100000000000000000000000000000000000000000000000000000000600052602260045260246000fd5b60006002820490506001821680612d9857607f821691505b60208210811415612dac57612dab612d51565b5b50919050565b7f4164647265737320746f20617070726f766520697320616c726561647920746860008201527f65206f776e6572206f662074686520746f6b656e000000000000000000000000602082015250565b6000612e0e6034836124fc565b9150612e1982612db2565b604082019050919050565b60006020820190508181036000830152612e3d81612e01565b9050919050565b7f53656e646572206973204e4f5420746f6b656e206f776e6572206e6f7220617060008201527f70726f76656420666f7220616c6c000000000000000000000000000000000000602082015250565b6000612ea0602e836124fc565b9150612eab82612e44565b604082019050919050565b60006020820190508181036000830152612ecf81612e93565b9050919050565b7f43616c6c6572206973204e4f542074686520636f6e7472616374206f776e6572600082015250565b6000612f0c6020836124fc565b9150612f1782612ed6565b602082019050919050565b60006020820190508181036000830152612f3b81612eff565b9050919050565b7f53656e646572206973206e6f7420617574686f72697a656420746f207472616e60008201527f73666572207468697320746f6b656e0000000000000000000000000000000000602082015250565b6000612f9e602f836124fc565b9150612fa982612f42565b604082019050919050565b60006020820190508181036000830152612fcd81612f91565b9050919050565b7f4e487b7100000000000000000000000000000000000000000000000000000000600052603260045260246000fd5b6000819050919050565b61301e613019826125ac565b613003565b82525050565b6000613030828561300d565b602082019150613040828461300d565b6020820191508190509392505050565b7f536f6c7574696f6e20616c726561647920616464656400000000000000000000600082015250565b60006130866016836124fc565b915061309182613050565b602082019050919050565b600060208201905081810360008301526130b581613079565b9050919050565b6130c5816125ac565b82525050565b6040820160008201516130e160008501826130bc565b5060208201516130f460208501826130bc565b50505050565b600060029050919050565b600081905092915050565b6000819050919050565b600061312683836130bc565b60208301905092915050565b6000602082019050919050565b613148816130fa565b6131528184613105565b925061315d82613110565b8060005b8381101561318e578151613175878261311a565b965061318083613132565b925050600181019050613161565b505050505050565b6080820160008201516131ac600085018261313f565b5060208201516131bf604085018261313f565b50505050565b610100820160008201516131dc60008501826130cb565b5060208201516131ef6040850182613196565b50604082015161320260c08501826130cb565b50505050565b600081905092915050565b61321c816130fa565b6132268184613208565b925061323182613110565b8060005b83811015613262578151613249878261311a565b965061325483613132565b925050600181019050613235565b505050505050565b60006101408201905061328060008301856131c5565b61328e610100830184613213565b9392505050565b6000815190506132a4816126d7565b92915050565b6000602082840312156132c0576132bf61242c565b5b60006132ce84828501613295565b91505092915050565b7f536f6c7574696f6e20636f756c64206e6f742062652076657269666965642c2060008201527f7468656e206973206e6f74206164646564000000000000000000000000000000602082015250565b60006133336031836124fc565b915061333e826132d7565b604082019050919050565b6000602082019050818103600083015261336281613326565b9050919050565b600060408201905061337e6000830185612730565b61338b6020830184612641565b9392505050565b7f536f6c7574696f6e20646f6573206e6f74206578697374207965740000000000600082015250565b60006133c8601b836124fc565b91506133d382613392565b602082019050919050565b600060208201905081810360008301526133f7816133bb565b9050919050565b7f536f6c7574696f6e2077617320616c7265616479206d696e7465640000000000600082015250565b6000613434601b836124fc565b915061343f826133fe565b602082019050919050565b6000602082019050818103600083015261346381613427565b9050919050565b7f436f6e74726163742069732063757272656e746c792070617573656400000000600082015250565b60006134a0601c836124fc565b91506134ab8261346a565b602082019050919050565b600060208201905081810360008301526134cf81613493565b9050919050565b7f496e76616c6964206164647265737320666f72206e6577206f776e6572000000600082015250565b600061350c601d836124fc565b9150613517826134d6565b602082019050919050565b6000602082019050818103600083015261353b816134ff565b9050919050565b7f4e487b7100000000000000000000000000000000000000000000000000000000600052601160045260246000fd5b600061357c826125ac565b9150613587836125ac565b9250827fffffffffffffffffffffffffffffffffffffffffffffffffffffffffffffffff038211156135bc576135bb613542565b5b828201905092915050565b600081519050919050565b600082825260208201905092915050565b60006135ee826135c7565b6135f881856135d2565b935061360881856020860161250d565b61361181612540565b840191505092915050565b60006080820190506136316000830187612641565b61363e6020830186612641565b61364b6040830185612730565b818103606083015261365d81846135e3565b905095945050505050565b60008151905061367781612462565b92915050565b6000602082840312156136935761369261242c565b5b60006136a184828501613668565b91505092915050565b600081905092915050565b60008190508160005260206000209050919050565b600081546136d781612d80565b6136e181866136aa565b945060018216600081146136fc576001811461370d57613740565b60ff19831686528186019350613740565b613716856136b5565b60005b8381101561373857815481890152600182019150602081019050613719565b838801955050505b50505092915050565b6000613754826124f1565b61375e81856136aa565b935061376e81856020860161250d565b80840191505092915050565b600061378682856136ca565b91506137928284613749565b91508190509392505050565b7f5468652066726f6d2061646472657373206973204e4f5420746865206375727260008201527f656e74206f776e6572206f662074686520746f6b656e20746f207472616e736660208201527f6572000000000000000000000000000000000000000000000000000000000000604082015250565b60006138206042836124fc565b915061382b8261379e565b606082019050919050565b6000602082019050818103600083015261384f81613813565b9050919050565b7f54686520746f2061646472657373206973204e4f542076616c69640000000000600082015250565b600061388c601b836124fc565b915061389782613856565b602082019050919050565b600060208201905081810360008301526138bb8161387f565b9050919050565b60006138cd826125ac565b91506138d8836125ac565b9250828210156138eb576138ea613542565b5b828203905092915050565b7f496e76616c69642061646472657373206f6620746865206d696e74656420746f60008201527f6b656e0000000000000000000000000000000000000000000000000000000000602082015250565b60006139526023836124fc565b915061395d826138f6565b604082019050919050565b6000602082019050818103600083015261398181613945565b9050919050565b7f546f6b656e20616c726561647920657869737420696e20636f6e74726163742060008201527f616e6420686173206f776e657200000000000000000000000000000000000000602082015250565b60006139e4602d836124fc565b91506139ef82613988565b604082019050919050565b60006020820190508181036000830152613a13816139d7565b9050919050565b6000613a25826125ac565b91507fffffffffffffffffffffffffffffffffffffffffffffffffffffffffffffffff821415613a5857613a57613542565b5b600182019050919050565b7f4e487b7100000000000000000000000000000000000000000000000000000000600052601260045260246000fd5b6000613a9d826125ac565b9150613aa8836125ac565b925082613ab857613ab7613a63565b5b828204905092915050565b6000613ace826125ac565b9150613ad9836125ac565b925082613ae957613ae8613a63565b5b828206905092915050565b7f436f756e7465723a2064656372656d656e74206f766572666c6f770000000000600082015250565b6000613b2a601b836124fc565b9150613b3582613af4565b602082019050919050565b60006020820190508181036000830152613b5981613b1d565b905091905056fea2646970667358221220d99d2c6bcd62419b53ca80ede3b327f78559b792244eb9cf722ca978d3404ff264736f6c6343000809003368747470733a2f2f73332d75732d776573742d322e616d617a6f6e6177732e636f6d2f756461636974792d626c6f636b636861696e2f63617073746f6e652f",
  "immutableReferences": {},
  "source": "// SPDX-License-Identifier: MIT\r\npragma solidity ^0.8.0;\r\n\r\nimport \"../node_modules/@openzeppelin/contracts/utils/math/SafeMath.sol\";\r\nimport \"./ERC721Mintable.sol\";\r\nimport \"./verifier.sol\";\r\n\r\n// TODO define a contract call to the zokrates generated solidity contract <Verifier> or <renamedVerifier>\r\ninterface IVerifier  {\r\n    function verifyTx(Verifier.Proof memory proof, uint[2] memory input) external view returns (bool r); \r\n}\r\n\r\n// TODO define another contract named SolnSquareVerifier that inherits from your ERC721Mintable class\r\ncontract SolnSquareVerifier is CustomERC721Token {\r\n    using Pairing for *;\r\n    using SafeMath for uint256;\r\n    \r\n    IVerifier private verifier;\r\n    \r\n    constructor(string memory name, string memory symbol, address _verifier) \r\n    \tCustomERC721Token(name, symbol)\r\n    {\r\n        verifier = IVerifier(_verifier);\r\n    }\r\n    \r\n\t// TODO define a solutions struct that can hold an index & an address\r\n\tstruct Solution {\r\n\t    uint256 index;\r\n\t    address owner;\r\n\t}\r\n\t\r\n\t// TODO define an array of the above struct\r\n\tmapping(bytes32 => Solution) private solutions;\t\r\n\tuint256 solutionsCount;\r\n\r\n\t// TODO define a mapping to store unique solutions submitted\r\n\tmapping(uint256 => bool) solutionsMinted;\r\n\r\n\t// TODO Create an event to emit when a solution is added\r\n\tevent SolutionAdded(uint256 solutionIndex, address solutionAddress);    \r\n\t\r\n\t// TODO Create a function to add the solutions to the array and emit the event\r\n\tfunction addSolution(Verifier.Proof memory proof, uint256[2] memory input) external {\r\n\t    bytes32 solHash = keccak256(abi.encodePacked(input[0], input[1]));\t    \r\n\t    require(solutions[solHash].owner == address(0), \"Solution already added\");\r\n\t    \r\n\t\tbool verified = verifier.verifyTx(proof, input);\r\n\t\trequire(verified, \"Solution could not be verified, then is not added\");\r\n\t\t\t\t\r\n\t\tsolutionsCount = solutionsCount.add(1);\r\n\t\tSolution storage solution = solutions[solHash];\r\n\t\tsolution.index = solutionsCount;\r\n\t\tsolution.owner = msg.sender;\r\n\t\t\r\n\t\temit SolutionAdded(solutionsCount, msg.sender);\r\n\t}\r\n\t\t\r\n\t// TODO Create a function to mint new NFT only after the solution has been verified\r\n\t//  - make sure the solution is unique (has not been used before)\r\n\t//  - make sure you handle metadata as well as tokenSuplly\r\n\tfunction mintNFT(uint256[2] memory input) external {\r\n\t    bytes32 solHash = keccak256(abi.encodePacked(input[0], input[1]));\t\r\n\t    require(solutions[solHash].owner != address(0), \"Solution does not exist yet\");\r\n\t    uint256 solutionIndex = solutions[solHash].index;\r\n\t    require(solutionsMinted[solutionIndex] == false, \"Solution was already minted\");\r\n\t    \r\n\t    super.mint(msg.sender, solutionIndex, \"testTokenURI\");\r\n\t    \r\n\t    solutionsMinted[solutionIndex] = true;\r\n\t}\r\n}\r\n\r\n\r\n\r\n\r\n\r\n  \r\n\r\n\r\n\r\n\r\n\r\n\r\n\r\n\r\n\r\n\r\n\r\n\r\n\r\n\r\n\r\n\r\n\r\n\r\n\r\n\r\n\r\n\r\n\r\n\r\n\r\n\r\n",
  "sourcePath": "/Users/luischapa/Ethereum/project-5-real-state-market/contracts/SolnSquareVerifier.sol",
  "compiler": {
    "name": "solc",
    "version": "0.8.9+commit.e5eed63a.Emscripten.clang"
  },
  "schemaVersion": "3.4.2",
  "updatedAt": "2021-10-21T23:31:52.008Z",
  "networkType": "ethereum",
  "devdoc": {
    "kind": "dev",
    "methods": {
      "isApprovedForAll(address,address)": {
        "details": "Tells whether an operator is approved by a given owner",
        "params": {
          "operator": "operator address which you want to query the approval of",
          "owner": "owner address which you want to query the approval of"
        },
        "returns": {
          "_0": "bool whether the given operator is approved by the given owner"
        }
      },
      "setApprovalForAll(address,bool)": {
        "details": "Sets or unsets the approval of a given operator An operator is allowed to transfer all tokens of the sender on their behalf",
        "params": {
          "approved": "representing the status of the approval to be set",
          "to": "operator address to set the approval"
        }
      },
      "supportsInterface(bytes4)": {
        "details": "implement supportsInterface(bytes4) using a lookup table"
      },
      "tokenByIndex(uint256)": {
        "details": "Gets the token ID at a given index of all the tokens in this contract Reverts if the index is greater or equal to the total number of tokens",
        "params": {
          "index": "uint256 representing the index to be accessed of the tokens list"
        },
        "returns": {
          "_0": "uint256 token ID at the given index of the tokens list"
        }
      },
      "tokenOfOwnerByIndex(address,uint256)": {
        "details": "Gets the token ID at a given index of the tokens list of the requested owner",
        "params": {
          "index": "uint256 representing the index to be accessed of the requested tokens list",
          "owner": "address owning the tokens list to be accessed"
        },
        "returns": {
          "_0": "uint256 token ID at the given index of the tokens list owned by the requested address"
        }
      },
      "totalSupply()": {
        "details": "Gets the total amount of tokens stored by the contract",
        "returns": {
          "_0": "uint256 representing the total amount of tokens"
        }
      }
    },
    "version": 1
  },
  "userdoc": {
    "kind": "user",
    "methods": {},
    "version": 1
  }
}